{
  "contractName": "Adoption",
  "abi": [
    {
      "constant": true,
      "inputs": [],
      "name": "storedData",
      "outputs": [
        {
          "name": "",
          "type": "uint256"
        }
      ],
      "payable": false,
      "stateMutability": "view",
      "type": "function"
    },
    {
      "constant": true,
      "inputs": [
        {
          "name": "",
          "type": "uint256"
        }
      ],
      "name": "adopters",
      "outputs": [
        {
          "name": "",
          "type": "address"
        }
      ],
      "payable": false,
      "stateMutability": "view",
      "type": "function"
    },
    {
      "constant": false,
      "inputs": [
        {
          "name": "petId",
          "type": "uint256"
        }
      ],
      "name": "adopt",
      "outputs": [
        {
          "name": "",
          "type": "uint256"
        }
      ],
      "payable": false,
      "stateMutability": "nonpayable",
      "type": "function"
    },
    {
      "constant": true,
      "inputs": [],
      "name": "getAdopters",
      "outputs": [
        {
          "name": "",
          "type": "address[16]"
        }
      ],
      "payable": false,
      "stateMutability": "view",
      "type": "function"
    }
  ],
  "bytecode": "0x608060405234801561001057600080fd5b5061026c806100206000396000f3006080604052600436106100615763ffffffff7c01000000000000000000000000000000000000000000000000000000006000350416632a1afcd981146100665780633de4eb171461008d57806343ae80d3146100db5780638588b2c51461011c575b600080fd5b34801561007257600080fd5b5061007b610134565b60408051918252519081900360200190f35b34801561009957600080fd5b506100a261013a565b604051808261020080838360005b838110156100c85781810151838201526020016100b0565b5050505090500191505060405180910390f35b3480156100e757600080fd5b506100f360043561018d565b6040805173ffffffffffffffffffffffffffffffffffffffff9092168252519081900360200190f35b34801561012857600080fd5b5061007b6004356101b7565b60105481565b610142610220565b604080516102008101918290529060009060109082845b815473ffffffffffffffffffffffffffffffffffffffff168152600190910190602001808311610159575050505050905090565b6000816010811061019a57fe5b015473ffffffffffffffffffffffffffffffffffffffff16905081565b60008082101580156101ca5750600f8211155b15156101d557600080fd5b33600083601081106101e357fe5b01805473ffffffffffffffffffffffffffffffffffffffff191673ffffffffffffffffffffffffffffffffffffffff929092169190911790555090565b6102006040519081016040528060109060208202803883395091929150505600a165627a7a723058209575c45efe55c5bb797c7a1736a8745af40a7b47f201a054db4605a839733abf0029",
  "source": "pragma solidity ^0.4.17;\ncontract Adoption {\n    address[16] public adopters;\n      uint public storedData;\n\nfunction adopt(uint petId) public returns (uint) {\n    require(petId >= 0 && petId <= 15);\n    adopters[petId] = msg.sender;\n    //adopters[8] = 567\n    return petId;\n    //return 8\n}\nfunction getAdopters() public view returns (address[16]) {\n    return adopters;\n}\n}",
  "sourcePath": "/Users/margaretwalker/Grace-Hopper-Senior-Phase/joyn/contracts/Adoption.sol",
  "compiler": {
    "name": "solc",
    "version": "0.4.24+commit.e67f0147.Emscripten.clang"
  },
  "schemaVersion": "2.0.1",
  "updatedAt": "2018-11-19T17:08:26.431Z"
}