{
  "contractName": "JoinUp",
  "abi": [
    {
      "constant": true,
      "inputs": [
        {
          "name": "",
          "type": "uint256"
        }
      ],
      "name": "proposals",
      "outputs": [
        {
          "name": "name",
          "type": "bytes32"
        },
        {
          "name": "buyCount",
          "type": "uint256"
        }
      ],
      "payable": false,
      "stateMutability": "view",
      "type": "function"
    },
    {
      "constant": true,
      "inputs": [
        {
          "name": "",
          "type": "address"
        }
      ],
      "name": "buyers",
      "outputs": [
        {
          "name": "weight",
          "type": "uint256"
        },
        {
          "name": "bought",
          "type": "bool"
        },
        {
          "name": "buy",
          "type": "uint256"
        }
      ],
      "payable": false,
      "stateMutability": "view",
      "type": "function"
    },
    {
      "constant": true,
      "inputs": [],
      "name": "eventcreator",
      "outputs": [
        {
          "name": "",
          "type": "address"
        }
      ],
      "payable": false,
      "stateMutability": "view",
      "type": "function"
    },
    {
      "inputs": [],
      "payable": false,
      "stateMutability": "nonpayable",
      "type": "constructor"
    },
    {
      "constant": false,
      "inputs": [
        {
          "name": "buyer",
          "type": "address"
        }
      ],
      "name": "giveRightToBuy",
      "outputs": [],
      "payable": false,
      "stateMutability": "nonpayable",
      "type": "function"
    },
    {
      "constant": false,
      "inputs": [
        {
          "name": "proposal",
          "type": "uint256"
        }
      ],
      "name": "buy",
      "outputs": [],
      "payable": false,
      "stateMutability": "nonpayable",
      "type": "function"
    },
    {
      "constant": true,
      "inputs": [],
      "name": "winningProposal",
      "outputs": [
        {
          "name": "winningProposal_",
          "type": "uint256"
        }
      ],
      "payable": false,
      "stateMutability": "view",
      "type": "function"
    },
    {
      "constant": true,
      "inputs": [],
      "name": "winnerName",
      "outputs": [
        {
          "name": "winnerName_",
          "type": "bytes32"
        }
      ],
      "payable": false,
      "stateMutability": "view",
      "type": "function"
    }
  ],
  "bytecode": "0x608060405234801561001057600080fd5b5060008054600160a060020a0319163317808255600160a060020a031681526001602081905260408220555b60018110156100e357604080518082019091527f6576656e7400000000000000000000000000000000000000000000000000000081526001602082018181526002805480840182556000829052935193027f405787fa12a823e0f2b7631cc41b3ba8828b3321ca811111fa75cd3aa3bb5ace810193909355517f405787fa12a823e0f2b7631cc41b3ba8828b3321ca811111fa75cd3aa3bb5acf909201919091550161003c565b50610662806100f36000396000f3006080604052600436106100825763ffffffff7c0100000000000000000000000000000000000000000000000000000000600035041663013cf08b8114610087578063609ff1bd146100b85780636c3a267e146100df57806397a993aa1461010f578063d96a094a1461015b578063db74414914610173578063e2ba53f0146101b1575b600080fd5b34801561009357600080fd5b5061009f6004356101c6565b6040805192835260208301919091528051918290030190f35b3480156100c457600080fd5b506100cd6101f2565b60408051918252519081900360200190f35b3480156100eb57600080fd5b5061010d73ffffffffffffffffffffffffffffffffffffffff60043516610266565b005b34801561011b57600080fd5b5061013d73ffffffffffffffffffffffffffffffffffffffff60043516610405565b60408051938452911515602084015282820152519081900360600190f35b34801561016757600080fd5b5061010d60043561042b565b34801561017f57600080fd5b506101886105ed565b6040805173ffffffffffffffffffffffffffffffffffffffff9092168252519081900360200190f35b3480156101bd57600080fd5b506100cd610609565b60028054829081106101d457fe5b60009182526020909120600290910201805460019091015490915082565b60006005815b6001811015610261578160028281548110151561021157fe5b906000526020600020906002020160010154141561025357600280548290811061023757fe5b9060005260206000209060020201600101549150809250610259565b61029a92505b6001016101f8565b505090565b60005473ffffffffffffffffffffffffffffffffffffffff16331461031257604080517f08c379a000000000000000000000000000000000000000000000000000000000815260206004820152602960248201527f4f6e6c79206576656e742063726561746f722063616e2067697665207269676860448201527f7420746f206275792e0000000000000000000000000000000000000000000000606482015290519081900360840190fd5b73ffffffffffffffffffffffffffffffffffffffff81166000908152600160208190526040909120015460ff16156103ab57604080517f08c379a000000000000000000000000000000000000000000000000000000000815260206004820152601a60248201527f5468652062757965727320616c726561647920626f756768742e000000000000604482015290519081900360640190fd5b73ffffffffffffffffffffffffffffffffffffffff8116600090815260016020526040902054156103db57600080fd5b73ffffffffffffffffffffffffffffffffffffffff16600090815260016020819052604090912055565b600160208190526000918252604090912080549181015460029091015460ff9091169083565b3360009081526001602081905260409091209081015460ff16156104b057604080517f08c379a000000000000000000000000000000000000000000000000000000000815260206004820152600f60248201527f416c726561647920626f756768742e0000000000000000000000000000000000604482015290519081900360640190fd5b8054151561051f57604080517f08c379a000000000000000000000000000000000000000000000000000000000815260206004820152601360248201527f486173206e6f20726967687420746f2062757900000000000000000000000000604482015290519081900360640190fd5b60005473ffffffffffffffffffffffffffffffffffffffff163314156105a657604080517f08c379a000000000000000000000000000000000000000000000000000000000815260206004820152601a60248201527f6576656e742063726561746f722062757920696d706c69636974000000000000604482015290519081900360640190fd5b6001818101805460ff19169091179055600280820183905581548154909190849081106105cf57fe5b60009182526020909120600160029092020101805490910190555050565b60005473ffffffffffffffffffffffffffffffffffffffff1681565b600060026106156101f2565b8154811061061f57fe5b9060005260206000209060020201600001549050905600a165627a7a723058206464bd93eab352c80b978611037541eb433afceed14a0a8665a38de436a72e1e0029",
  "source": "pragma solidity ^0.4.22;\n\n/// @title Joining a ticket group\n\ncontract JoinUp {\n    struct Buyer {\n        uint weight; // weight is accumulated by invitation of Owner\n        bool bought;  // if true, that person already bought\n        uint buy;   // index of the bought proposal\n    }\n    struct Proposal {\n        bytes32 name;   // short name (up to 32 bytes)\n        uint buyCount; // number of accumulated buys\n    }\n\n    address public eventcreator;\n    mapping(address => Buyer) public buyers;\n    Proposal[] public proposals;\n\n    constructor() public {\n        eventcreator = msg.sender;\n        buyers[eventcreator].weight = 1;\n\n        for (uint i = 0; i < 1; i++) {\n            proposals.push(Proposal({\n             name: 'event',\n             buyCount: 1\n            }));\n        }\n    }\n\n\n    function giveRightToBuy(address buyer) public {\n        require(\n            msg.sender == eventcreator,\n            \"Only event creator can give right to buy.\"\n        );\n        require(\n            !buyers[buyer].bought,\n            \"The buyers already bought.\"\n        );\n        require(buyers[buyer].weight == 0);\n        buyers[buyer].weight = 1;\n    }\n\n    function buy(uint proposal) public {\n        Buyer storage sender = buyers[msg.sender];\n        require(!sender.bought, \"Already bought.\");\n        require(sender.weight != 0, \"Has no right to buy\");\n        require(msg.sender != eventcreator, \"event creator buy implicit\");\n        sender.bought = true;\n        sender.buy = proposal;\n        proposals[proposal].buyCount += sender.weight;\n    }\n\n    function winningProposal() public view\n            returns (uint winningProposal_)\n    {\n        uint winningBuyCount = 5;\n        for (uint p = 0; p < 1; p++) {\n            if (proposals[p].buyCount == winningBuyCount) {\n                winningBuyCount = proposals[p].buyCount;\n                winningProposal_ = p;\n            } else {\n                 winningProposal_ = 666;\n            }\n        }\n    }\n\n\n    function winnerName() public view\n            returns (bytes32 winnerName_)\n    {\n        winnerName_ = proposals[winningProposal()].name;\n    }\n}",
  "sourcePath": "/Users/uhuggins/fs-2/joinap/contracts/JoinUp.sol",
  "compiler": {
    "name": "solc",
    "version": "0.4.24+commit.e67f0147.Emscripten.clang"
  },
  "schemaVersion": "2.0.1",
  "updatedAt": "2018-11-16T17:42:51.133Z"
}